:100000000C943D000C94B2000C94B2000C94B2001D
:100010000C9467000C94B2000C94B2000C94B200E3
:100020000C94B2000C94B2000C94B2000C94B20088
:100030000C94B2000C94B2000C947D000C94B200AD
:100040000C94B2000C94B2000C94B2000C94B20068
:100050000C94B2000C94B2000C94B2000C94B20058
:100060000C94B2000C94B200010001028001020164
:100070000300017201030104800011241FBECFEFB1
:10008000D8E0DEBFCDBFE8E6F0E040E017C0B591B4
:10009000A59135912591059107FD0CC0959185910C
:1000A000EF01F92FE82F05900D92A217B307D9F7AA
:1000B000FE0104C01D92A217B307E1F7E937F40768
:0E00C00031F70E948E000C949E00F894FFCF42
:1000CE001F920F920FB60F9211248F939F9382E07F
:1000DE008BB996B181E089278170809301019F9140
:0C00EE008F910F900FBE0F901F9018957F
:1000FA001F920F920FB60F9211248F9380910301D2
:10010A008F5F809303018F910F900FBE0F901F9006
:02011A00189536
:10011C008FEF8AB984B91BB815B80E94A9009091C9
:10012C000301809102019817D0F38FEF8BB9F7CFB1
:10013C00EC010E94B7000E94B600CE010E94B800EC
:06014C00CE010E94B40088
:1001520082E084BD91E095BD9CE797BD80936E00DF
:020162000895FE
:040164000C940000F7
:040168000E9465008C
:02016C000895F4
:02016E000895F2
:020170000895F0
:01017200325A
:00000001FF
