:100000000C9437000C942E050C942E050C942E05A0
:100010000C942E050C9466000C942E050C942E0561
:100020000C942E050C942E050C942E050C945B0359
:100030000C942E050C942E050C942E050C942E0574
:100040000C94F9040C942E050C942E050C942E059A
:100050000C942E050C942E050C942E050C942E0554
:100060000C942E050C942E05010001238000112410
:100070001FBECFEFD8E0DEBFCDBFE8E6F0E040E046
:1000800017C0B591A59135912591059107FD0CC03B
:1000900095918591EF01F92FE82F05900D92A21708
:1000A000B307D9F7FE0104C01D92A217B307E1F709
:1000B000ED36F40731F70E94AA040C94EE04F8948C
:0200C000FFCF70
:0A00C2003E302D39331B1F303F3B49
:1000CC001F920F920FB60F9211242F933F934F93C1
:1000DC005F936F937F938F939F93AF93BF93CF93C4
:1000EC00EF93FF9399B192959F7081E0982791704F
:1000FC009093010199B19695969596959827917044
:10010C009093080199B19695969589278170809363
:10011C000701813019F48093050110C081110CC0C6
:10012C0090910501913041F4811106C081E08093DA
:10013C0004011092050102C0109204018091070184
:10014C00813079F480912201823020F48F5F80938A
:10015C00220102C010922201809122010E944604C9
:10016C00B9C180910801882309F4DBC08091220178
:10017C008130F1F120F0823009F473C0A9C0C09134
:10018C001E01C33608F0A4C0CF5FC0931E016C2FB4
:10019C0070E080E090E00E94A703609311017093DF
:1001AC001201809313019093140120E030E048EC8D
:1001BC0052E40E94230520E030E04FE753E40E9414
:1001CC0027050E941704609321018DECC89F812D97
:1001DC001124869586958695282F220F922F990F9C
:1001EC00990F920FC91BC0931A018093170170C00D
:1001FC00C0911D01C33608F06BC0CF5FC0931D01C9
:10020C006C2F70E080E090E00E94A70360930D01DA
:10021C0070930E0180930F019093100120E030E059
:10022C0048EC52E40E94230520E030E04FE753E411
:10023C000E9427050E941704609320018DECC89F33
:10024C00812D1124869586958695282F220F922F25
:10025C00990F990F920FC91BC09319018093160126
:10026C0037C0C0911C01C33698F5CF5FC0931C01F9
:10027C006C2F70E080E090E00E94A703609309016E
:10028C0070930A0180930B0190930C0120E030E0F5
:10029C0048EC52E40E94230520E030E04FE753E4A1
:1002AC000E9427050E94170460931F018DECC89FC4
:1002BC00812D1124869586958695282F220F922FB5
:1002CC00990F990F920FC91BC093180180931501B8
:1002DC0040911F0160912001809121010E941E0517
:1002EC0080911B018111F6C080912201813059F05F
:1002FC0018F0823079F0EEC06091170180911A01EC
:10030C000E94E403E7C060911601809119010E94DC
:10031C00E403E0C060911501809118010E94E40390
:10032C00D9C080910101882309F4D4C080912201A5
:10033C008130F1F120F0823009F46CC0A3C0C0917F
:10034C001E01CC2309F49EC0C150C0931E016C2F1A
:10035C0070E080E090E00E94A7036093110170931D
:10036C001201809313019093140120E030E048ECCB
:10037C0052E40E94230520E030E04FE753E40E9452
:10038C0027050E941704609321018DECC89F812DD5
:10039C001124869586958695282F220F922F990FDA
:1003AC00990F920FC91BC0931A01809317016AC051
:1003BC00C0911D01CC2309F465C0C150C0931D012F
:1003CC006C2F70E080E090E00E94A70360930D0119
:1003DC0070930E0180930F019093100189E2C89FD6
:1003EC00812D112482958F708195809320018DEC45
:1003FC00C89F812D1124869586958695282F220FCE
:10040C00922F990F990F920FC91BC09319018093CA
:10041C00160138C090911C019923A1F1CFEFC90F9F
:10042C00C0931C016C2F70E080E090E00E94A70349
:10043C006093090170930A0180930B0190930C0156
:10044C0020E030E048EC52E40E94230520E030E04C
:10045C004FE753E40E9427050E94170460931F0185
:10046C008DECC89F812D1124869586958695282F15
:10047C00220F922F990F990F920FC91BC09318013D
:10048C008093150140911F01609120018091210101
:10049C000E941E0580911B0181111CC080912201BC
:1004AC00813059F018F0823079F014C06091170146
:1004BC0080911A010E94E4030DC060911601809195
:1004CC0019010E94E40306C0609115018091180186
:1004DC000E94E403FF91EF91CF91BF91AF919F9157
:1004EC008F917F916F915F914F913F912F910F90D1
:0804FC000FBE0F901F90189530
:1005040010C00E940A0558F00E94030540F029F427
:100514005F3F29F00C94180551110C9412050C94AA
:100524002B050E946C0468F39923B1F3552391F3CE
:10053400951B550BBB27AA2762177307840738F04E
:100544009F5F5F4F220F331F441FAA1FA9F335D0AB
:100554000E2E3AF0E0E832D091505040E695001C5F
:10056400CAF72BD0FE2F29D0660F771F881FBB1F19
:10057400261737074807AB07B0E809F0BB0B802DF7
:10058400BF01FF2793585F4F3AF09E3F510578F023
:100594000C9418050C9412055F3FE4F3983ED4F3D1
:1005A400869577956795B795F7959F5FC9F7880FF7
:1005B400911D9695879597F90895E1E0660F771F49
:1005C400881FBB1F621773078407BA0720F0621BDA
:0E05D400730B840BBA0BEE1F88F7E0950895A9
:1005E2000FC00E94030538F00E940A0520F09523EF
:1005F20011F00C9418050C942B0511240C9412057F
:100602000E946C0470F3959FC1F3950F50E0551F43
:10061200629FF001729FBB27F00DB11D639FAA2755
:10062200F00DB11DAA1F649F6627B00DA11D661FA4
:10063200829F2227B00DA11D621F739FB00DA11DC5
:10064200621F839FA00D611D221F749F3327A00D7F
:10065200611D231F849F600D211D822F762F6A2F1B
:1006620011249F5750409AF0F1F088234AF0EE0F80
:10067200FF1FBB1F661F771F881F91505040A9F7AD
:100682009E3F510580F00C9418050C9412055F3FB3
:10069200E4F3983ED4F3869577956795B795F795E9
:1006A200E7959F5FC1F7FE2B880F911D9695879561
:0406B20097F9089517
:1006B6001F920F920FB60F9211242F933F934F93D1
:1006C6005F936F937F938F939F93AF93BF93EF93B4
:1006D600FF9380911B018F5F80931B01823018F17D
:1006E60010921B0180912201813059F018F082305E
:1006F60079F014C06091170180911A010E94E403F9
:100706000DC060911601809119010E94E40306C094
:1007160060911501809118010E94E403EFE6F0E074
:1007260080818D7F8083FF91EF91BF91AF919F91E3
:100736008F917F916F915F914F913F912F910F9084
:080746000FBE0F901F901895E3
:10074E00E89409C097FB3EF490958095709561955D
:10075E007F4F8F4F9F4F9923A9F0F92F96E9BB2713
:10076E009395F695879577956795B795F111F8CF8F
:10077E00FAF4BB0F11F460FF1BC06F5F7F4F8F4FFA
:10078E009F4F16C0882311F096E911C0772321F0F0
:10079E009EE8872F762F05C0662371F096E8862F88
:1007AE0070E060E02AF09A95660F771F881FDAF7DF
:0A07BE00880F9695879597F9089526
:1007C8009BB19E7F9BB998B1907C98B9282F30E057
:1007D80040E02E533F4F4F4FF901949147FD9081D0
:1007E80095B9262F30E040E02E533F4F4F4FF90187
:1007F800949147FD908198B9613011F0643021F4EB
:100808009BB19E7F9BB903C09BB191609BB981301E
:1008180011F0843021F48BB18D7F8BB908958BB1A1
:0608280082608BB9089507
:10082E000E94740488F09F5798F0B92F9927B751FA
:10083E00B0F0E1F0660F771F881F991F1AF0BA9576
:10084E00C9F714C0B13091F00E941105B1E00895BE
:10085E000C941105672F782F8827B85F39F0B93FB0
:10086E00CCF3869577956795B395D9F73EF4909529
:0E087E008095709561957F4F8F4F9F4F089525
:10088C00813069F018F0823099F01AC085E088B98F
:10089C008FE085B98BB18C7F82608BB914C08FE1EE
:1008AC0088B985E085B98BB18C7F81608BB90BC021
:1008BC008FE188B98EE085B98BB18C7F8BB903C081
:0C08CC008BB18C7F8BB90E94C004089592
:1008D80057FD9058440F551F59F05F3F71F04795E9
:1008E800880F97FB991F61F09F3F79F087950895CE
:1008F800121613061406551FF2CF4695F1DF08C0ED
:10090800161617061806991FF1CF86957105610509
:0409180008940895A2
:10091C008FE384B987B983EE8AB98AB1837E8AB9A9
:10092C008BB18C618BB9E8E6F0E0808184608083C8
:10093C00EDE6F0E080818C618083E1E6F0E080E818
:08094C00808383E0808308959D
:100954000E948E040E94E204789480E00CC090917E
:100964001F01891720F49BB190689BB903C09BB108
:0C0974009F779BB98F5F843690F3EFCF24
:10098000E1E8F0E080818D60808380EA97E09093D9
:10099000890080938800EFE6F0E0808182608083A8
:0209A0000895B8
:1009A200092E0394000C11F4882352F0BB0F40F47B
:1009B200BF2B11F460FF04C06F5F7F4F8F4F9F4FBB
:0209C200089596
:1009C40085B5826085BDEEE6F0E08081816080833C
:0809D40084B5816A84BD089519
:1009DC00EC010E9433050E943205CE010E943405C1
:0609EC00CE010E9430055F
:1009F2001F920F920FB60F9211240F900FBE0F90FD
:040A02001F90189594
:0E0A060000240A94161617061806090608950D
:0E0A140000240A94121613061406050608950F
:0E0A2200E894BB2766277727CB0197F9089544
:0C0A300097F99F6780E870E060E008958F
:0A0A3C0087BD68BD40931F010895B7
:080A46000E9482020C94D1040D
:080A4E000E94F1020C94D10496
:060A56009FEF80EC089503
:040A5C000C940000F6
:040A60000E945F0091
:020A64000895F3
:020A66000895F1
:020A68000895EF
:00000001FF
