:100000000C943A000C944F020C944F020C944F0243
:100010000C944F020C944F020C944F020C944F021C
:100020000C944F020C944F020C944F020C944F020C
:100030000C944F020C944F020C944F020C944F02FC
:100040000C944F020C944F020C944F020C944F02EC
:100050000C944F020C944F020C944F020C944F02DC
:100060000C944F020C944F02010001040004AC01F7
:100070000401078011241FBECFEFD8E0DEBFCDBF43
:10008000E8E6F0E040E017C0B591A59135912591E3
:10009000059107FD0CC095918591EF01F92FE82F8F
:1000A00005900D92A217B307D9F7FE0104C01D9267
:1000B000A217B307E1F7E437F40731F70E946400B1
:0800C0000C941A02F894FFCF22
:1000C8008FE384B98AB983E087B988B97894809135
:1000D8000601873029F415B81BB81092060117C01D
:1000E8008091040190910501892B49F485B1880F0D
:1000F8008F5F85B98BB18695805E8BB908C08BB14F
:10010800880F8F5F8BB985B18695805E85B9C12CC4
:10011800D12C76010AC020E030E040E85FE3C70157
:10012800B6010E9426026B017C01C0910001D091AA
:100138000101BE010D2E000C880B990B0E9488014D
:100148009B01AC01C701B6010E94470288231CF33A
:10015800809106018F5F8093060196B186B19170F8
:100168008270892BD1F3309B0CC026C020E030E090
:1001780040E85FE3C701B6010E9426026B017C01DB
:1001880003C0C12CD12C760120E030EF42E556E4C3
:10019800C701B6010E944702882344F381E090E03A
:1001A8002091040130910501232B11F080E090E0AB
:1001B8009093050180930401319989CF0BC020E009
:1001C80030E040E85FE3C701B6010E9426026B01F8
:1001D8007C0103C0C12CD12C760120E030EF42E530
:1001E80056E4C701B6010E944702882344F3CE01B2
:1001F800DD230CF4019695958795909301018093E2
:10020800000140910201509103019A01552314F411
:10021800215F3F4F35952795359527953595279536
:1002280035952795281739070CF451CF50930101BC
:06023800409300014CCFD1
:10023E0011C00E942C0238F00E94330220F039F4D3
:10024E009F3F19F426F40C944C020EF4E095E7FB54
:10025E000C944102E92F0E94E70158F3BA17620786
:10026E0073078407950720F079F4A6F50C943A02EB
:10027E000EF4E0950B2EBA2FA02D0B01B9019001B3
:10028E000C01CA01A0011124FF27591B99F0593FF7
:10029E0050F4503E68F11A16F040A22F232F342F3F
:1002AE004427585FF3CF469537952795A795F0408D
:1002BE005395C9F77EF41F16BA0B620B730B840BA2
:1002CE00BAF09150A1F0FF0FBB1F661F771F881F5A
:1002DE00C2F70EC0BA0F621F731F841F48F48795B2
:1002EE0077956795B795F7959E3F08F0B0CF9395A4
:0E02FE00880F08F09927EE0F979587950895C1
:10030C00E89409C097FB3EF49095809570956195A3
:10031C007F4F8F4F9F4F9923A9F0F92F96E9BB2759
:10032C009395F695879577956795B795F111F8CFD5
:10033C00FAF4BB0F11F460FF1BC06F5F7F4F8F4F40
:10034C009F4F16C0882311F096E911C0772321F036
:10035C009EE8872F762F05C0662371F096E8862FCE
:10036C0070E060E02AF09A95660F771F881FDAF725
:0A037C00880F9695879597F908956C
:10038600990F0008550FAA0BE0E8FEEF16161706A0
:10039600E807F907C0F012161306E407F50798F008
:1003A600621B730B840B950B39F40A2661F0232B21
:1003B600242B252B21F408950A2609F4A140A6959D
:0803C6008FEF811D811D0895D8
:1003CE0057FD9058440F551F59F05F3F71F04795F8
:1003DE00880F97FB991F61F09F3F79F087950895DD
:1003EE00121613061406551FF2CF4695F1DF08C0FC
:1003FE00161617061806991FF1CF86957105610519
:04040E0008940895B1
:10041200092E0394000C11F4882352F0BB0F40F410
:10042200BF2B11F460FF04C06F5F7F4F8F4F9F4F50
:0204320008952B
:10043400EC010E9454020E945302CE010E94550214
:06044400CE010E945102EE
:0E044A005058BB27AA270E941F010C940902DC
:0E04580000240A9416161706180609060895C1
:0E04660000240A9412161306140605060895C3
:0E047400E894BB2766277727CB0197F90895F8
:0C04820097F99F6780E870E060E0089543
:0A048E000E94C30108F481E0089504
:060498009FEF80EC0895C7
:04049E000C940000BA
:0404A2000E94620052
:0204A6000895B7
:0204A8000895B5
:0204AA000895B3
:0204AC006842A4
:0204AE006842A2
:00000001FF
