:100000000C9440000C947E010C947E010C947E01B3
:100010000C94B9000C947E010C947E010C947E012A
:100020000C947E010C947E010C947E010C947E0154
:100030000C947E010C947E010C946A000C947E0159
:100040000C947E010C947E010C947E010C947E0134
:100050000C947E010C947E010C947E010C947E0124
:100060000C947E010C947E010100010A80010A01BA
:100070000E00030A010E0110800110011200030E90
:1000800011241FBECFEFD8E0DEBFCDBFE8E6F0E021
:1000900040E017C0B591A59135912591059107FDD7
:1000A0000CC095918591EF01F92FE82F05900D92E5
:1000B000A217B307D9F7FE0104C01D92A217B30718
:1000C000E1F7E038F40731F70E944D010C946B0121
:0400D000F894FFCFD2
:1000D4001F920F920FB60F9211242F933F934F93B9
:1000E4005F936F937F938F939F93AF93BF93EF939C
:1000F400FF938091060190910701A0910801B091AE
:10010400090140910A0150910B0160910C01709119
:100114000D0184179507A607B70760F40196A11D82
:10012400B11D8093060190930701A0930801B09339
:1001340009010CC0109206011092070110920801E7
:10014400109209010E94EF000E941E01FF91EF919D
:10015400BF91AF919F918F917F916F915F914F91DB
:0E0164003F912F910F900FBE0F901F90189596
:100172001F920F920FB60F9211242F933F934F931A
:100182005F936F937F938F939F93AF93BF93EF93FD
:10019200FF9386B181708093040191E0811190E018
:1001A2009093030186B182708093010191E08111E5
:1001B20090E0909305010E947601FF91EF91BF912B
:1001C200AF919F918F917F916F915F914F913F91ED
:0C01D2002F910F900FBE0F901F901895FA
:1001DE0086B181708093020190910401891306C04B
:1001EE0080910301813011F480930F0180910301FE
:1001FE0081110DC090910F01913049F49091110130
:10020E00913029F41092110110920F01089581116D
:10021E000DC080910F01813049F48091110181113F
:0E022E0005C081E08093110110920F01089528
:10023C0086B182708093000190910101891306C0F0
:10024C0080910501813011F480930E01809105019C
:10025C0081110DC090910E01913049F490911001D3
:10026C00913029F41092100110920E010895811111
:10027C000DC080910E01813049F4809110018111E3
:0E028C0005C081E08093100110920E010895CC
:10029A009FEF9AB91BB817B883E088B994B992E06E
:1002AA009093680080936C00789480911001882361
:1002BA0021F090911101911103C08FEF8BB9F5CF05
:0C02CA00813011F0913089F71BB8EFCFA4
:1002D600EC010E9483010E948201CE010E948401EA
:0602E600CE010E94800120
:1002EC0082E084BD85BD9CE797BD80936E00089528
:0402FC000C9400005E
:040300000E946800EF
:0203040008955A
:02030600089558
:02030800089556
:04030A00E803000004
:01030E0001ED
:01030F0001EC
:00000001FF
