:100000000C943A000C9456020C9456020C9456022E
:100010000C9464000C9456020C9456020C945602F4
:100020000C9456020C9456020C9456020C945602F0
:100030000C9456020C9456020C9456020C945602E0
:100040000C9456020C9456020C9456020C945602D0
:100050000C9456020C9456020C9456020C945602C0
:100060000C9456020C945602010001020004BA01DD
:100070000201058011241FBECFEFD8E0DEBFCDBF47
:10008000E8E6F0E040E017C0B591A59135912591E3
:10009000059107FD0CC095918591EF01F92FE82F8F
:1000A00005900D92A217B307D9F7FE0104C01D9267
:1000B000A217B307E1F7E437F40731F70E943C01D8
:0800C0000C942102F894FFCF1B
:1000C8001F920F920FB60F921124CF92DF92EF92E8
:1000D800FF922F933F934F935F936F937F938F93E9
:1000E8009F93AF93BF93EF93FF9396B186B19170AF
:1000F8008270892BD1F3309B0CC026C020E030E001
:1001080040E85FE3C701B6010E942D026B017C0144
:1001180003C0C12CD12C760120E030E84BE356E433
:10012800C701B6010E944E02882344F381E090E0A3
:100138002091020130910301232B11F080E090E01F
:100148009093030180930201319916C080910001B8
:100158009091010199230CF40196959587959093B8
:100168000101809300018732944034F488E692E4D8
:100178009093010180930001FF91EF91BF91AF919E
:100188009F918F917F916F915F914F913F912F91A7
:10019800FF90EF90DF90CF900F900FBE0F901F90C1
:0201A8001895A8
:1001AA0011C00E94330238F00E943A0220F039F45A
:1001BA009F3F19F426F40C9453020EF4E095E7FBE2
:1001CA000C944802E92F0E94EE0158F3BA1762070D
:1001DA0073078407950720F079F4A6F50C94410279
:1001EA000EF4E0950B2EBA2FA02D0B01B901900148
:1001FA000C01CA01A0011124FF27591B99F0593F8C
:10020A0050F4503E68F11A16F040A22F232F342FD3
:10021A004427585FF3CF469537952795A795F04021
:10022A005395C9F77EF41F16BA0B620B730B840B36
:10023A00BAF09150A1F0FF0FBB1F661F771F881FEE
:10024A00C2F70EC0BA0F621F731F841F48F4879546
:10025A0077956795B795F7959E3F08F0B0CF939538
:0E026A00880F08F09927EE0F97958795089555
:100278008FE384B98AB983E088B992E090936800E3
:1002880080936C00789480910401873029F415B824
:100298001BB81092040117C08091020190910301CC
:1002A800892B49F485B1880F8F5F85B98BB1869505
:1002B800805E8BB908C08BB1880F8F5F8BB985B111
:1002C8008695805E85B9C12CD12C76010AC020E0C4
:1002D80030E040E85FE3C701B6010E942D026B01E0
:1002E8007C016091000170910101072E000C880BC0
:1002F800990B0E948F019B01AC01C701B6010E94B6
:100308004E02882324F3809104018F5F80930401B7
:02031800BACF5A
:10031A00E89409C097FB3EF4909580957095619595
:10032A007F4F8F4F9F4F9923A9F0F92F96E9BB274B
:10033A009395F695879577956795B795F111F8CFC7
:10034A00FAF4BB0F11F460FF1BC06F5F7F4F8F4F32
:10035A009F4F16C0882311F096E911C0772321F028
:10036A009EE8872F762F05C0662371F096E8862FC0
:10037A0070E060E02AF09A95660F771F881FDAF717
:0A038A00880F9695879597F908955E
:10039400990F0008550FAA0BE0E8FEEF1616170692
:1003A400E807F907C0F012161306E407F50798F0FA
:1003B400621B730B840B950B39F40A2661F0232B13
:1003C400242B252B21F408950A2609F4A140A6958F
:0803D4008FEF811D811D0895CA
:1003DC0057FD9058440F551F59F05F3F71F04795EA
:1003EC00880F97FB991F61F09F3F79F087950895CF
:1003FC00121613061406551FF2CF4695F1DF08C0EE
:10040C00161617061806991FF1CF8695710561050A
:04041C0008940895A3
:10042000092E0394000C11F4882352F0BB0F40F402
:10043000BF2B11F460FF04C06F5F7F4F8F4F9F4F42
:0204400008951D
:10044200EC010E945B020E945A02CE010E945C02F1
:06045200CE010E945802D9
:0E0458005058BB27AA270E94D5000C94100212
:0E04660000240A9416161706180609060895B3
:0E04740000240A9412161306140605060895B5
:0E048200E894BB2766277727CB0197F90895EA
:0C04900097F99F6780E870E060E0089535
:0A049C000E94CA0108F481E00895EF
:0604A6009FEF80EC0895B9
:0404AC000C940000AC
:0404B0000E94620044
:0204B4000895A9
:0204B6000895A7
:0204B8000895A5
:0204BA00684296
:00000001FF
