:100000000C944B000C944C090C944C090C944C0926
:100010000C944C090C944C090C944C090C944C090C
:100020000C944C090C944C090C944C090C945307F7
:100030000C944C090C944C090C944C090C944C09EC
:100040000C944C090C944C090C9462080C944C09C7
:100050000C948F070C944C090C944C090C944C098B
:100060000C944C090C944C09D300A201020290029A
:100070001E039A03F90324040100010D80010D0100
:10008000460012A60146017880017801820012DF45
:100090000182018D800011241FBECFEFD8E0DEBFAA
:1000A000CDBFE8E7F0E040E017C0B591A5913591EC
:1000B0002591059107FD0CC095918591EF01F92FD0
:1000C000E82F05900D92A217B307D9F7FE0104C0DF
:1000D0001D92A217B307E1F7E539F40731F70E9443
:0A00E000B9000C941009F894FFCF4A
:1000EA000D50574D20523D000D000D50574D2047E1
:1000FA003D000D50574D20423D004C00490047003D
:10010A0041004400450053000D50574D206C69676B
:10011A0061646F210A0D00000D50574D206465730C
:10012A006C696761646F210A0D00000D4361726199
:10013A006374657220696E76616C69646F210A0D59
:10014A00000050574D2058203D205959590A0D009A
:07015A0000520042002500E5
:0A0161003F061B0F262D3D073F2F20
:03016B0039103810
:03016E00103D3C05
:100172000E94B0080E943C090E94DD0880918C0117
:10018200813009F0C5C310928C0180918801909151
:1001920089018830910508F085C3FC01EC5CFF4FB2
:1001A2000C943609FC01E858FE4F8081843611F028
:1001B200843411F58091190190911A01A0911B01CB
:1001C2009C014A2F2F5F3F4F4F4F209307013093DF
:1001D200080140930901FC018491A7FD808180936D
:1001E200C6008091880190918901019690938901BE
:1001F2008093880180E06FC38C3611F08C3411F546
:1002020080910D0190910E01A0910F019C014A2F46
:100212002F5F3F4F4F4F20930701309308014093C8
:100222000901FC018491A7FD80818093C600809121
:1002320088019091890101969093890180938801A8
:1002420080E049C380917801823559F0823749F0C4
:10025200873439F0873629F0823619F0823409F072
:1002620027C3823711F08235D9F410928701109298
:10027200860180913A0190913B01A0913C019C0141
:100282004A2F2F5F3F4F4F4F2093070130930801B2
:1002920040930901FC018491A7FD80818093C600EF
:1002A20080917801873611F08734E9F481E090E09B
:1002B200909387018093860180913D0190913E0148
:1002C200A0913F019C014A2F2F5F3F4F4F4F209338
:1002D20007013093080140930901FC018491A7FDB5
:1002E20080818093C60080917801823611F0823439
:1002F200E9F482E090E090938701809386018091F7
:10030200400190914101A09142019C014A2F2F5F2F
:100312003F4F4F4F2093070130930801409309014B
:10032200FC018491A7FD80818093C60080918801A1
:10033200909189010196909389018093880180E0D0
:10034200CAC2FC01E858FE4F80818D3369F4809364
:10035200C60080918801909189010196909389014C
:100362008093880180E0B7C2853611F0853411F59B
:1003720080911C0190911D01A0911E019C014A2FA8
:100382002F5F3F4F4F4F2093070130930801409357
:100392000901FC018491A7FD80818093C6008091B0
:1003A2008801909189010196909389018093880137
:1003B20080E091C2893619F0893409F07BC28091BC
:1003C200100190911101A09112019C014A2F2F5FFF
:1003D2003F4F4F4F2093070130930801409309018B
:1003E200FC018491A7FD80818093C60080918801E1
:1003F200909189010196909389018093880180E010
:100402006AC2FC01E858FE4F808190ED980F9A3045
:10041200C8F58093C60080917801823711F0823549
:1004220051F4E0918801F0918901E858FE4F9081E2
:10043200905390930501873611F0873451F4E0917F
:100442008801F0918901E858FE4F90819053909372
:100452000301823611F0823451F4E0918801F09167
:100462008901E858FE4F8081805380930201809178
:100472008801909189010196909389018093880166
:1004820080E029C2833511F0833711F580911F0175
:1004920090912001A09121019C014A2F2F5F3F4F93
:1004A2004F4F209307013093080140930901FC014B
:1004B2008491A7FD80818093C600809188019091EC
:1004C20089010196909389018093880180E003C29B
:1004D200873419F0873609F0EFC1809113019091AA
:1004E2001401A09115019C014A2F2F5F3F4F4F4FDE
:1004F200209307013093080140930901FC01849184
:10050200A7FD80818093C600809188019091890126
:100512000196909389018093880180E0DCC1FC01FF
:10052200E858FE4F808190ED980F9A30C8F580937D
:10053200C60080917801823711F0823551F4E09142
:100542008801F0918901E858FE4F90819053909371
:100552000101873611F0873451F4E0918801F0915E
:100562008901E858FE4F9081905390930B01823697
:1005720011F0823451F4E0918801F0918901E85838
:10058200FE4F808180538093040180918801909175
:1005920089010196909389018093880180E09BC133
:1005A2008C3411F08C3611F5809122019091230147
:1005B200A09124019C014A2F2F5F3F4F4F4F209360
:1005C20007013093080140930901FC018491A7FDC2
:1005D20080818093C6008091880190918901019663
:1005E200909389018093880180E075C1813419F06C
:1005F200813609F063C18091160190911701A09193
:1006020018019C014A2F2F5F3F4F4F4F2093070144
:100612003093080140930901FC018491A7FD808178
:100622008093C600809188019091890101969093F0
:1006320089018093880180E04EC1FC01E858FE4F99
:100642008081853211F58091430190914401A091FE
:1006520045019C014A2F2F5F3F4F4F4F20930701C7
:100662003093080140930901FC018491A7FD808128
:100672008093C600809188019091890101969093A0
:1006820089018093880180E026C1893411F089367E
:1006920011F58091250190912601A09127019C01DD
:1006A2004A2F2F5F3F4F4F4F20930701309308018E
:1006B20040930901FC018491A7FD80818093C600CB
:1006C200809188019091890101969093890180938C
:1006D200880180E000C18D3019F08A3009F0F0C045
:1006E200809178018C3419F08C3609F0EBC080913E
:1006F2002E0190912F01A09130019C014A2F2F5F72
:100702003F4F4F4F20930701309308014093090157
:10071200FC018491A7FD80818093C600109289011B
:100722001092880185E087BD88BD80930C0180E02E
:10073200D2C0FC01E858FE4F208130ED320F3A3032
:1007420038F40196909389018093880180E0C3C0B8
:10075200273411F0273611F5809128019091290153
:10076200A0912A019C014A2F2F5F3F4F4F4F2093A8
:1007720007013093080140930901FC018491A7FD10
:1007820080818093C60080918801909189010196B1
:10079200909389018093880180E09DC03A3038F4BB
:1007A2000196909389018093880180E094C02D3056
:1007B20019F02A3009F088C00E949A0486E491E078
:1007C200A0E89C014A2F2F5F3F4F4F4F2093070114
:1007D2003093080140930901FC018491A7FD8081B7
:1007E2008093C600109289011092880180E073C044
:1007F200FC01E858FE4F8081813419F0813609F0FE
:1008020065C080912B0190912C01A0912D019C013A
:100812004A2F2F5F3F4F4F4F20930701309308011C
:1008220040930901FC018491A7FD80818093C60059
:10083200809188019091890101969093890180931A
:10084200880180E048C0FC01E858FE4F80818D306D
:1008520011F08A30E9F580917801843411F0843600
:10086200C9F58091310190913201A09133019C012F
:100872004A2F2F5F3F4F4F4F2093070130930801BC
:1008820040930901FC018491A7FD80818093C600F9
:10089200109289011092880117BC18BC10920C01A9
:1008A20080E019C0109289011092880180E013C083
:1008B20081E011C081E00FC081E00DC081E00BC07A
:1008C20081E009C081E007C081E005C081E003C08A
:1008D20080E001C081E08130D9F410928901109248
:1008E20088018091340190913501A09136019C01DB
:1008F2004A2F2F5F3F4F4F4F20930701309308013C
:1009020040930901FC018491A7FD80818093C60078
:1009120080E00CC090910C01891720F49BB1906883
:100922009BB903C09BB19F779BB98F5F8F3F91F7B4
:0209320025CCD2
:1009340080918601909187018130910509F456C018
:100944008230910509F4A1C0892B09F0EDC0809192
:10095400050190E0BC01660F771F880F991F880F6F
:10096400991F880F991F680F791F80910101680FE3
:10097400711D072E000C880B990B0E94180720E0AC
:1009840030E048EC52E40E94410920E030E04FE7B7
:1009940053E40E9445090E94C20760930A0168BD9E
:1009A40062E871E080910A010E94F10728E030E0DA
:1009B4004AEE50E060E086E491E00E947E0842E85E
:1009C40051E060E886E491E00E949708E6E4F1E0F3
:1009D400DF010D900020E9F7CD0122E030E042EF85
:1009E40050E060E001970E947E0808958091030121
:1009F40090E0BC01660F771F880F991F880F991F1D
:100A0400880F991F680F791F80910B01680F711D62
:100A1400072E000C880B990B0E94180720E030E089
:100A240048EC52E40E94410920E030E04FE753E4EF
:100A34000E9445090E94C20760930A0167BD62E8EB
:100A440071E080910A010E94F10728E030E044EF50
:100A540050E060E086E491E00E947E0842E851E0C4
:100A640060E886E491E00E949708E6E4F1E0DF01A3
:100A74000D900020E9F7CD0122E030E042EF50E094
:100A840060E001970E947E0808958091020190E041
:100A9400BC01660F771F880F991F880F991F880F55
:100AA400991F680F791F80910401680F711D072E2B
:100AB400000C880B990B0E94180720E030E048ECEA
:100AC40052E40E94410920E030E04FE753E40E94E1
:100AD40045090E94C207862F60930A0160930C01A6
:100AE40062E871E00E94F10728E030E04CEF50E04A
:100AF40060E086E491E00E947E0842E851E060E80C
:100B040086E491E00E949708E6E4F1E0DF010D90AD
:100B14000020E9F7CD0122E030E042EF50E060E050
:100B240001970E947E08089518BC17BC10920C010E
:020B3400089522
:100B360080918A018130C1F120F0823009F467C0CA
:100B460008958091050190E0A0E08F599E4FAF4F28
:100B5600FC018491A7FD808188B98091010190E014
:100B6600A0E08F599E4FAF4FFC018491A7FD808175
:100B760085B980910101823010F0873021F48BB164
:100B8600877F8BB903C08BB188608BB980910501D3
:100B9600823010F0873021F48BB18B7F8BB90895AA
:100BA6008BB184608BB908958091030190E0A0E039
:100BB6008F599E4FAF4FFC018491A7FD808188B964
:100BC60080910B0190E0A0E08F599E4FAF4FFC0142
:100BD6008491A7FD808185B980910B01823010F048
:100BE600873021F48BB1877F8BB903C08BB18860C6
:100BF6008BB980910301823010F0873021F48BB1DC
:100C06008B7F8BB908958BB184608BB908958091E1
:100C1600020190E0A0E08F599E4FAF4FFC018491F6
:100C2600A7FD808188B98091040190E0A0E08F59EA
:100C36009E4FAF4FFC018491A7FD808185B98091BD
:100C46000401823010F0873021F48BB1877F8BB995
:100C560003C08BB188608BB980910201823010F09D
:100C6600873021F48BB18B7F8BB908958BB184606B
:040C76008BB9089599
:100C7A0010C00E94220958F00E941B0940F029F472
:100C8A005F3F29F00C94300951110C942A090C94F5
:100C9A0049090E94400868F39923B1F3552391F357
:100CAA00951B550BBB27AA2762177307840738F0D1
:100CBA009F5F5F4F220F331F441FAA1FA9F335D02E
:100CCA000E2E3AF0E0E832D091505040E695001CE2
:100CDA00CAF72BD0FE2F29D0660F771F881FBB1F9C
:100CEA00261737074807AB07B0E809F0BB0B802D7A
:100CFA00BF01FF2793585F4F3AF09E3F510578F0A6
:100D0A000C9430090C942A095F3FE4F3983ED4F31B
:100D1A00869577956795B795F7959F5FC9F7880F79
:100D2A00911D9695879597F90895E1E0660F771FCB
:100D3A00881FBB1F621773078407BA0720F0621B5C
:0E0D4A00730B840BBA0BEE1F88F7E09508952B
:100D58000FC00E941B0938F00E94220920F0952339
:100D680011F00C9430090C94490911240C942A09A7
:100D78000E94400870F3959FC1F3950F50E0551FEE
:100D8800629FF001729FBB27F00DB11D639FAA27D8
:100D9800F00DB11DAA1F649F6627B00DA11D661F27
:100DA800829F2227B00DA11D621F739FB00DA11D48
:100DB800621F839FA00D611D221F749F3327A00D02
:100DC800611D231F849F600D211D822F762F6A2F9E
:100DD80011249F5750409AF0F1F088234AF0EE0F03
:100DE800FF1FBB1F661F771F881F91505040A9F730
:100DF8009E3F510580F00C9430090C942A095F3FFE
:100E0800E4F3983ED4F3869577956795B795F7956B
:100E1800E7959F5FC1F7FE2B880F911D96958795E3
:040E280097F9089599
:100E2C00E89409C097FB3EF4909580957095619578
:100E3C007F4F8F4F9F4F9923A9F0F92F96E9BB272E
:100E4C009395F695879577956795B795F111F8CFAA
:100E5C00FAF4BB0F11F460FF1BC06F5F7F4F8F4F15
:100E6C009F4F16C0882311F096E911C0772321F00B
:100E7C009EE8872F762F05C0662371F096E8862FA3
:100E8C0070E060E02AF09A95660F771F881FDAF7FA
:0A0E9C00880F9695879597F9089541
:100EA6001F920F920FB60F9211242F933F934F93D9
:100EB6005F936F937F938F939F93AF93BF93EF93BC
:100EC600FF9380918B01813029F40E949B0510923B
:100ED6008B0111C081110FC080918A01823020F4EC
:100EE6008F5F80938A0102C010928A010E941908BE
:100EF60081E080938B01FF91EF91BF91AF919F911C
:100F06008F917F916F915F914F913F912F910F90AC
:080F16000FBE0F901F9018950B
:100F1E001F920F920FB60F9211242F938F939F93C0
:100F2E00AF93EF93FF932091070190910801809169
:100F3E000901E22FF92F949187FD9081992381F079
:100F4E009093C6008091070190910801A09109012C
:100F5E000196A11D8093070190930801A0930901AA
:100F6E00FF91EF91AF919F918F912F910F900FBEA7
:060F7E000F901F90189572
:100F84000E94480888F09F5798F0B92F9927B751C5
:100F9400B0F0E1F0660F771F881F991F1AF0BA9519
:100FA400C9F714C0B13091F00E942909B1E0089545
:100FB4000C942909672F782F8827B85F39F0B93F37
:100FC400CCF3869577956795B395D9F73EF49095CC
:0E0FD4008095709561957F4F8F4F9F4F0895C8
:100FE200FB0199E2899F912D112492959F7020E334
:100FF200290F2083282F34E6939F201911249DEC7A
:10100200299F212D1124269526952695205D218341
:10101200899F912D1124969596959695990F292F32
:10102200220F220F920F891B805D82831382089503
:1010320080918A01823021F48BB1877F8BB903C002
:101042008BB188608BB980918A0190E0A0E08259CF
:101052009E4FAF4FFC018491A7FD808188B980919A
:101062008A0190E0A0E085599E4FAF4FFC01849128
:0E107200A7FD808185B98BB184608BB908958C
:1010800057FD9058440F551F59F05F3F71F0479539
:10109000880F97FB991F61F09F3F79F0879508951E
:1010A000121613061406551FF2CF4695F1DF08C03D
:1010B000161617061806991FF1CF8695710561055A
:0410C00008940895F3
:1010C4001F920F920FB60F9211248F93EF93FF93F9
:1010D400E0918801F09189018091C600E858FE4FA3
:1010E400808381E080938C01FF91EF918F910F9029
:0810F4000FBE0F901F9018952C
:1010FC00CF92DF92EF926A01E62EDC01280F391FA6
:10110C00A217B30751F0F6014491E7FC40814D93CF
:10111C004FEFC41AD40AE40AF3CFEF90DF90CF90CC
:02112C00089524
:10112E00CF92DF92EF92CF93DF93EC016A01E62E1E
:10113E00BC0180E80E94C7086E2DA6018C0F9D1F72
:10114E000E940209CE01DF91CF91EF90DF90CF90F8
:02115E000895F2
:101160008FEF84B98AB987B91092C00088ED809357
:10117000C10086E08093C2001092C50088E0809391
:0E118000C40018BC17BC10920C01789408959E
:10118E00CF92DF92EF926B01E82EA82FCB01FC01DC
:10119E002491A7FD2081222319F00196A11DF7CFDE
:0C11AE008C199D09EF90DF90CF90089500
:1011BA00E0E8F0E0808188608083E1E8F0E0808107
:1011CA008260808381E68093890088EA8093880020
:0811DA0082E080936F0008958C
:1011E200092E0394000C11F4882352F0BB0F40F433
:1011F200BF2B11F460FF04C06F5F7F4F8F4F9F4F73
:0212020008954D
:101204009A01462FDC01F901549147FD50815D9309
:0C1214002F5F3F4F4F4F5111F6CF089550
:10122000EC010E9451090E945009CE010E9452090E
:06123000CE010E944E09F0
:0E12360000240A9416161706180609060895D5
:0E12440000240A9412161306140605060895D7
:0E125200E894BB2766277727CB0197F908950C
:0C12600097F99F6780E870E060E0089557
:0C126C00EE0FFF1F0590F491E02D099497
:0A12780083EA84BD85E085BD08957A
:081282000E943D060C94F108E6
:08128A000E94AC060C94F1086F
:061292009FEF80EC0895BF
:041298000C940000B2
:04129C000E94730039
:0212A0000895AF
:0212A2000895AD
:0212A4000895AB
:1012A6000401000601000801000A01000C01000EFD
:1012B60001001001000401000601000801000A01F6
:1012C600001201002201003501004C01005B010003
:0912D6000801005D01005F010048
:0A12DF003030303030303030303025
:00000001FF
