:100000000C943D000C9489020C9489020C94890292
:100010000C9489020C9489020C9489020C94890234
:100020000C9489020C9489020C9489020C94890224
:100030000C9489020C9489020C9489020C94890214
:100040000C9489020C9489020C9462020C9489022B
:100050000C94B4010C9489020C9489020C948902CA
:100060000C9489020C9489020100010580010501AC
:100070001E000520011E0123800011241FBECFEFAA
:10008000D8E0DEBFCDBFE8E6F0E040E017C0B591B4
:10009000A59135912591059107FD0CC0959185910C
:1000A000EF01F92FE82F05900D92A217B307D9F7AA
:1000B000FE0104C01D92A217B307E1F7E937F40768
:0E00C00031F70E949A000C947E02F894FFCF54
:1000CE0050574D206C696761646F210A0D00005016
:1000DE00574D206465736C696761646F210A0D006A
:1000EE000043617261637465726520696E76616C3E
:1000FE0069646F210A0D0000446967697465206F99
:10010E002076616C6F7220646F2050574D20583AE4
:10011E00200A0D0050574D2058203D205959590A9C
:03012E000D0000C1
:03013100524742F0
:100134008FEF84B91092C00088ED8093C10086E0EF
:100144008093C2001092C50083E38093C40083E8C7
:1001540084BD85E085BD80E48AB9E0911E01F091FB
:100164001F01E55EFE4F808187BD78948091220156
:100174008130E1F7109222018091200190912101B8
:10018400009739F00CF4C6C0843091050CF490C08B
:10019400C1C0809111018C3411F08C36F9F480E4E3
:1001A4008AB98091050190910601A09107019C01F3
:1001B4004A2F2F5F3F4F4F4F20930201309303018B
:1001C40040930401FC018491A7FD80818093C600C3
:1001D400109221011092200180E0A5C0843411F016
:1001E4008436F1F41AB88091080190910901A09124
:1001F4000A019C014A2F2F5F3F4F4F4F209302016A
:100204003093030140930401FC018491A7FD808194
:100214008093C600109221011092200180E083C0D7
:10022400823559F0823749F0873439F0873629F01E
:10023400823419F0823609F073C0823511F08237A6
:1002440021F410921F0110921E01873411F0873699
:1002540031F421E030E030931F0120931E018234F9
:1002640011F0823631F482E090E090931F01809384
:100274001E0181E090E09093210180932001809100
:100284000E0190910F01A09110019C014A2F2F5F44
:100294003F4F4F4F209302013093030140930401D9
:1002A400FC018491A7FD80818093C60080E03BC05F
:1002B400FC01EF5EFE4F208130ED320F3A3038F40E
:1002C4000196909321018093200180E02CC02D3071
:1002D40011F02A3039F50E942A028091110190917F
:1002E4001201A09113019C014A2F2F5F3F4F4F4FE2
:1002F400209302013093030140930401FC01849193
:10030400A7FD80818093C6001092210110922001E4
:1003140080E009C0109221011092200180E003C006
:1003240081E001C081E0813009F020CF10922101E9
:100334001092200180910B0190910C01A0910D016C
:100344009C014A2F2F5F3F4F4F4F20930201309360
:10035400030140930401FC018491A7FD80818093F3
:04036400C60004CFFC
:100368001F920F920FB60F9211242F938F939F9382
:10037800AF93EF93FF932091020190910301809135
:100388000401E22FF92F949187FD9081992309F4B4
:1003980052C0983589F480911E0190911F01092E51
:1003A800000CAA0B8F5C9E4FAF4FFC018491A7FDF8
:1003B80080818093C6002DC0993549F5E0910001F0
:1003C800F0910101808180538A3050F4CF01019669
:1003D800909301018093000180818093C60019C029
:1003E8008091020190910301A09104010196A11D41
:1003F8008093020190930301A0930401FC0184916E
:10040800A7FD80818A3061F78093C60002C090936F
:10041800C6008091020190910301A0910401019608
:10042800A11D8093020190930301A09304011092EF
:10043800210110922001FF91EF91AF919F918F912F
:0C0448002F910F900FBE0F901F90189581
:1004540060911E0170911F01FB01E55EFE4F108249
:1004640041E050E00EC0FB01E55EFE4F9081990F24
:10047400292F220F220F920F890F805380834F5F01
:100484005F4FFA01EF5EFE4F808190ED980F9A3036
:1004940050F382E191E09093010180930001FB010C
:1004A400E55EFE4F808185B980911E0190911F0108
:1004B400009729F4FC01E55EFE4F808187BD089515
:1004C4001F920F920FB60F9211248F93EF93FF9305
:1004D400E0912001F09121018091C600EF5EFE4F72
:1004E400808381E080932201FF91EF918F910F909F
:0804F4000FBE0F901F90189538
:1004FC00EC010E948E020E948D02CE010E948F029E
:06050C00CE010E948B02EB
:040512000C94000045
:040516000E946500DA
:02051A00089542
:02051C00089540
:02051E0008953E
:0C052000CE0000DD0000EF00000601002E
:0A052C0030303030303030303030E5
:030536000A0A0AA4
:00000001FF
