:100000000C9434000C947A000C947A000C947A00CE
:100010000C947A000C947A000C947A000C947A0078
:100020000C947A000C947A000C947A000C947A0068
:100030000C947A000C947A000C9464000C947A006E
:100040000C947A000C947A000C947A000C947A0048
:100050000C947A000C947A000C947A000C947A0038
:100060000C947A000C947A0011241FBECFEFD8E0D4
:10007000DEBFCDBF0E9440000C946F00F894FFCF0C
:1000800081E687BD25B581E090E002C0880F991F09
:100090002A95E2F785BD82E084BD80936E008FEFE4
:1000A0008AB920E030E00BC04BB181E090E002C0A3
:1000B000880F991F4A95E2F78BB92F5F3F4F24367F
:0800C000310594F37894DCCFC4
:1000C8001F920F920FB60F92112400000F900FBECF
:0600D8000F901F90189527
:1000DE00EC010E947F000E947E00CE010E948000F3
:0600EE00CE010E947C001F
:0400F4000C94000068
:0400F8000E943E0024
:0200FC00089565
:0200FE00089563
:02010000089560
:00000001FF
