:100000000C943D000C942F030C942F030C942F039D
:100010000C94E6010C942F030C942F030C942F03E3
:100020000C942F030C942F030C942F030C94530265
:100030000C942F030C942F030C94E1020C94F30204
:100040000C942F030C942F030C942F030C942F0368
:100050000C942F030C942F030C942F030C942F0358
:100060000C942F030C942F0301000106800106015C
:100070000800066C01080115800011241FBECFEF97
:10008000D8E0DEBFCDBFE8E6F0E040E017C0B591B4
:10009000A59135912591059107FD0CC0959185910C
:1000A000EF01F92FE82F05900D92A217B307D9F7AA
:1000B000FE0104C01D92A217B307E1F7E937F40768
:0E00C00031F70E9498020C942403F894FFCFAD
:0A00CE003F065B4F666D7D077F6FF4
:0300D80039281CA8
:0300DB00507D7CD9
:1000DE0080910501813019F491E090931201811104
:1000EE0088C080911201813009F083C010921201F4
:1000FE00809106019091070181309105F1F08230D7
:10010E00910599F1892B09F046C080911101843631
:10011E0020F083E68093110103C08F5F809311015D
:10012E008091110199E2899F812D112482958F7002
:10013E00819580930E0187BD2EC08091100184366B
:10014E0020F083E68093100103C08F5F809310012F
:10015E008091100199E2899F812D112482958F70D3
:10016E00819580930D0188BD16C080910F01843654
:10017E0020F083E680930F0103C08F5F80930F0101
:10018E0080910F0199E2899F812D112482958F70A4
:10019E00819580930C0180910A0190910B01893019
:1001AE00910591F420910801309109012A30310511
:1001BE005CF42F5F3F4F309309012093080110929A
:1001CE000B0110920A0105C0019690930B018093CA
:1001DE000A0180910801909109010A9754F089E073
:1001EE0090E0909309018093080190930B01809306
:0801FE000A010E948B01089523
:1002060080910101813019F491E0909313018111DD
:100216007CC080911301813009F077C010921301E0
:10022600809106019091070181309105E1F08230BD
:10023600910581F1892BC1F580911101811103C0CE
:100246001092110103C08150809311018091110118
:1002560099E2899F812D112482958F7081958093D3
:100266000E0187BD21C080911001811103C010923B
:10027600100103C08150809310018091100199E212
:10028600899F812D112482958F70819580930D0110
:1002960088BD0AC080910F01811103C010920F0121
:1002A60003C0815080930F0120910801309109010C
:1002B6002115310579F480910A0190910B01892B62
:1002C60049F4109209011092080110920B01109244
:1002D6000A011BC080910A0190910B01009781F4DD
:1002E600121613066CF4215031093093090120933C
:1002F600080189E090E090930B0180930A0105C004
:10030600019790930B0180930A010E948B01089537
:10031600CF93DF934BB18091080190910901092E8B
:10032600000CAA0B82539F4FAF4FFC018491A7FD8F
:1003360080818170482B4BB9809108019091090109
:10034600092E000CAA0B82539F4FAF4FFC018491DC
:10035600A7FD80818E7790E09595879588B94BB1FA
:1003660080910A0190910B01CAE0D0E0BE010E9483
:10037600B902092E000CAA0B82539F4FAF4FFC0106
:100386008491A7FD8081282F217030E0220F331F32
:10039600242B2BB980910A0190910B01BE010E947A
:1003A600B902092E000CAA0B82539F4FAF4FFC01D6
:1003B6008491A7FD80818E7790E09595879585B984
:0603C600DF91CF910895C4
:1003CC001F920F920FB60F9211242F933F934F93BE
:1003DC005F936F937F938F939F93AF93BF93EF93A1
:1003EC00FF9399B19695969581E09827917090938B
:1003FC00030199B19695969596959827917090933F
:10040C00010199B192959F708927817080930501A4
:10041C000E9477020E9403010E946F00FF91EF91EE
:10042C00BF91AF919F918F917F916F915F914F9100
:0E043C003F912F910F900FBE0F901F901895BB
:10044A008091060190910701019721F48BB1816097
:10045A008BB903C08BB18E7F8BB9809106019091C5
:10046A000701092E000CAA0B85529F4FAF4FFC01C2
:10047A008491A7FD808188B9809106019091070136
:10048A00092E000CAA0B88529F4FAF4FFC01849192
:0C049A00A7FD808185B90E94150308951C
:1004A6001F920F920FB60F9211242F933F934F93E3
:1004B6005F936F937F938F939F93AF93BF93EF93C6
:1004C600FF930E948B01FF91EF91BF91AF919F9196
:1004D6008F917F916F915F914F913F912F910F90E7
:0804E6000FBE0F901F90189546
:1004EE0080910301813019F491E0909314018111F0
:1004FE0017C080911401813099F4109214018091EB
:10050E0006019091070101969093070180930601D1
:10051E00039724F010920701109206010E94250203
:02052E0008952E
:100530008FE387B984B983EE8AB915B818B88CE10E
:100540008BB984E080936800ECE6F0E080818C61F8
:1005500080830E940503789496B580910C019817CA
:1005600020F088B1806888B9F7CF88B18F7788B9D3
:02057000F3CFC7
:1005720097FB072E16F4009407D077FD09D00E944E
:10058200CD0207FC05D03EF4909581959F4F0895CA
:08059200709561957F4F0895FB
:10059A00AA1BBB1B51E107C0AA1FBB1FA617B7079F
:1005AA0010F0A61BB70B881F991F5A95A9F78095BB
:0805BA009095BC01CD010895EC
:1005C2001F920F920FB60F9211248F939F939BB19C
:1005D20080E289278BB99F918F910F900FBE0F9068
:0405E2001F901895B9
:1005E6001F920F920FB60F9211248F939F9398B17B
:1005F60080E4892788B99F918F910F900FBE0F9045
:040606001F90189594
:10060A0084B5836084BD84B5806F84BD85B58260FE
:10061A0085BD80910E0187BD80910D0188BD089529
:10062A0082E08093800095E09093810097E0909318
:0E063A00890090EA9093880080936F000895E5
:10064800EC010E9434030E943303CE010E9435035B
:06065800CE010E943103F7
:04065E000C940000F8
:040662000E9465008D
:020666000895F5
:020668000895F3
:02066A000895F1
:02066C00FFFF8E
:00000001FF
