:100000000C9440000C9405020C9405020C9405021B
:100010000C94CD000C9405020C9405020C9405027E
:100020000C9405020C9405020C9405020C949301A7
:100030000C9405020C9405020C9403010C94050227
:100040000C9405020C9405020C9405020C94050214
:100050000C9405020C9405020C9405020C94050204
:100060000C9405020C9405020100010A80010A01AA
:100070000B000418010B010E80010E010F00041982
:1000800011241FBECFEFD8E0DEBFCDBFE8E6F0E021
:1000900040E017C0B591A59135912591059107FDD7
:1000A0000CC095918591EF01F92FE82F05900D92E5
:1000B000A217B307D9F7FE0104C01D92A217B30718
:1000C000E1F7E038F40731F70E94C0010C94F10128
:0400D000F894FFCFD2
:0A00D4003F065B4F666D7D077F6FEE
:1000DE008091070190E0A0E08C529F4FAF4FFC0142
:1000EE008491A7FD80818BB95BB1209106019DECB7
:1000FE00299F812D1124869586958695880F382FF8
:10010E00330F330F830F281B30E040E02C523F4F4C
:10011E004F4FF901849147FD808140E8849F900103
:10012E001124252B2BB980910601899F912D112425
:10013E00969596959695990F292F220F220F920F2D
:10014E00891B90E0A0E08C529F4FAF4FFC01849131
:10015E00A7FD80818E7790E09595879585B98091E2
:10016E000E01811112C0809106018F5F80930601EE
:10017E008A3059F410920601809107018F5F8093A7
:0C018E0007018A3011F410920701089557
:10019A001F920F920FB60F9211242F933F934F93F2
:1001AA005F936F937F938F939F93AF93BF93EF93D5
:1001BA00FF9386B181708093040191E0811190E0F0
:1001CA009093030186B182708093010191E08111BD
:1001DA0090E0909305010E94FC01FF91EF91BF917D
:1001EA00AF919F918F917F916F915F914F913F91C5
:0C01FA002F910F900FBE0F901F901895D2
:100206001F920F920FB60F9211242F933F934F9385
:100216005F936F937F938F939F93AF93BF93EF9368
:10022600FF938091090190910A01891720F48F5F4D
:100236008093090106C0109209010E9435010E94AF
:100246006401FF91EF91BF91AF919F918F917F9143
:100256006F915F914F913F912F910F900FBE0F902D
:040266001F90189538
:10026A0086B181708093020190910401891306C0BE
:10027A0080910301813011F480930C018091030174
:10028A0081110DC090910C01913049F490910E01A9
:10029A00913029F410920E0110920C0108958111E7
:1002AA000DC080910C01813049F480910E018111B9
:0E02BA0005C081E080930E0110920C010895A2
:1002C80086B182708093000190910101891306C064
:1002D80080910501813011F480930D018091050111
:1002E80081110DC090910B01913049F490910D014D
:1002F800913029F410920D0110920B01089581118B
:100308000DC080910B01813049F480910D0181115C
:0E03180005C081E080930D0110920B01089545
:100326001F920F920FB60F9211242F933F934F9364
:100336005F936F937F938F939F93AF93BF93EF9347
:10034600FF93809108018F5F809308018B3020F026
:10035600109208010E946F00FF91EF91BF91AF913B
:100366009F918F917F916F915F914F913F912F91C7
:0A0376000F900FBE0F901F90189516
:100380008FEF8AB98FE384B917B883E088B992E018
:100390009093680080936C00789480910E01811195
:1003A00006C080910801811102C00E94E201809183
:1003B0000D01813091F71092060110920701109201
:0403C0000D01EBCF71
:1003C40082E08093800095E0909381002FEF30E0ED
:0E03D400309389002093880080936F00089575
:1003E200EC010E940A020E940902CE010E940B0245
:0603F200CE010E9407028B
:1003F80082E084BD91E095BD99EF97BD80936E0032
:02040800089555
:04040A000C9400004E
:04040E000E946800E0
:0204120008954B
:02041400089549
:02041600089547
:01041800647F
:0104190001E1
:00000001FF
