:100000000C9440000C94D7010C94D7010C94D701A8
:100010000C946F000C94D7010C94D7010C94D70169
:100020000C94D7010C94D7010C94D7010C947B014C
:100030000C94D7010C94D7010C94A5000C94D70113
:100040000C94D7010C94D7010C94D7010C94D701D0
:100050000C94D7010C94D7010C94D7010C94D701C0
:100060000C94D7010C94D7010100010A80010A0108
:100070000B0003BC010B010E80010E010F0003BD3C
:1000800011241FBECFEFD8E0DEBFCDBFE8E6F0E021
:1000900040E017C0B591A59135912591059107FDD7
:1000A0000CC095918591EF01F92FE82F05900D92E5
:1000B000A217B307D9F7FE0104C01D92A217B30718
:1000C000E1F7E038F40731F70E9464010C94C401B1
:0400D000F894FFCFD2
:0A00D4003F065B4F666D7D077F6FEE
:1000DE001F920F920FB60F9211242F933F934F93AF
:1000EE005F936F937F938F939F93AF93BF93EF9392
:1000FE00FF9386B181708093040191E0811190E0AD
:10010E009093030186B182708093010191E0811179
:10011E0090E0909305010E94CF01FF91EF91BF9166
:10012E00AF919F918F917F916F915F914F913F9181
:0C013E002F910F900FBE0F901F9018958E
:10014A001F920F920FB60F9211242F933F934F9342
:10015A005F936F937F938F939F93AF93BF93EF9325
:10016A00FF938091090190910A01891720F48F5F0A
:10017A008093090106C0109209010E94D7000E94CB
:10018A000601FF91EF91BF91AF919F918F917F915E
:10019A006F915F914F913F912F910F900FBE0F90EA
:0401AA001F901895F5
:1001AE0086B181708093020190910401891306C07B
:1001BE0080910301813011F480930C018091030131
:1001CE0081110DC090910C01913049F490910E0166
:1001DE00913029F410920E0110920C0108958111A4
:1001EE000DC080910C01813049F480910E01811176
:0E01FE0005C081E080930E0110920C0108955F
:10020C0086B182708093000190910101891306C020
:10021C0080910501813011F480930D0180910501CD
:10022C0081110DC090910B01913049F490910D0109
:10023C00913029F410920D0110920B010895811147
:10024C000DC080910B01813049F480910D01811119
:0E025C0005C081E080930D0110920B01089502
:10026A008091070190E0A0E08C529F4FAF4FFC01B4
:10027A008491A7FD80818BB92BB18091060190E012
:10028A00A0E08C529F4FAF4FFC019491A7FD908143
:10029A0030E8939FC0011124822B8BB9809106010B
:1002AA0090E0A0E08C529F4FAF4FFC018491A7FDD4
:0E02BA0080818E7790E09595879585B908959F
:1002C8000E94A30180910D01813021F41092060152
:1002D8001092070180910E018111F4CF80910801DD
:0E02E8008111F0CF0E9435010E949001EBCFF2
:1002F6001F920F920FB60F9211248F9380910801CF
:100306008F5F809308018E3110F0109208018F9153
:0A0316000F900FBE0F901F90189576
:10032000809106018F5F809306018A3059F4109204
:100330000601809107018F5F809307018A3011F4D5
:0603400010920701089570
:100346008FEF8AB98FE384B917B883E088B992E052
:100356009093680080936C000E9435010E94B5015D
:0403660078940895EA
:10036A0082E08093800095E09093810021E630E05E
:0E037A00309389002093880080936F000895CF
:10038800EC010E94DC010E94DB01CE010E94DD012C
:06039800CE010E94D90114
:10039E0082E084BD85BD9CE797BD80936E00089575
:0403AE000C940000AB
:0403B2000E9468003D
:0203B6000895A8
:0203B8000895A6
:0203BA000895A4
:0103BC0064DC
:0103BD00013E
:00000001FF
