:100000000C9434000C9493000C9493000C94930083
:100010000C9493000C9493000C9493000C94930014
:100020000C9493000C9493000C9493000C94930004
:100030000C9493000C9493000C9493000C949300F4
:100040000C9493000C9493000C9493000C949300E4
:100050000C9493000C9493000C9493000C949300D4
:100060000C9493000C94930011241FBECFEFD8E0A2
:10007000DEBFCDBF0E9445000C948800F894FFCFEE
:0A0080003F065B4F666D7D077F6F42
:10008A008FEF8AB98FE384B940E050E020E030E096
:10009A00CA01052E000CAA0B80589F4FAF4FFC01D6
:1000AA008491A7FD80818BB9BBB1C901032E000CD5
:1000BA00AA0B80589F4FAF4FFC018491A7FD808106
:1000CA0090E8899FB00111246B2B6BB98E7790E071
:1000DA009595879585B92F5F3F4F2A30310561F491
:1000EA004F5F5F4F4A30510519F020E030E004C0FD
:1000FA0040E050E020E030E083EC99E00197F1F72E
:06010A0000C00000C5CF9B
:10011000EC010E9498000E949700CE010E94990075
:06012000CE010E949500D3
:040126000C94000035
:04012A000E943E00F1
:02012E00089532
:02013000089530
:0201320008952E
:00000001FF
