:100000000C943D000C949F060C949F060C949F0644
:100010000C949F060C94C0020C949F060C949F06AF
:100020000C949F060C949F060C949F060C949F06BC
:100030000C949F060C949F060C949F060C949F06AC
:100040000C9468060C949F060C94BD050C949F06B6
:100050000C94B9040C949F060C949F060C949F0674
:100060000C949F060C949F060100013D80013D0108
:1000700073000D4C0173017E800011241FBECFEF71
:10008000D8E0DEBFCDBFE8E6F0E040E017C0B591B4
:10009000A59135912591059107FD0CC0959185910C
:1000A000EF01F92FE82F05900D92A217B307D9F7AA
:1000B000FE0104C01D92A217B307E1F7E937F40768
:0E00C00031F70E9417040C945D06F894FFCFF0
:1000CE0050574D20523D002050574D20473D0020A7
:1000DE0050574D20423D000A0D00436F722073654C
:1000EE006C6563696F6E6164613A205665726D6509
:1000FE006C686F0A0D0000436F722073656C656348
:10010E00696F6E6164613A2056657264650A0D000E
:10011E0000436F722073656C6563696F6E61646115
:10012E003A20417A756C0A0D0000436F7220736598
:10013E006C6563696F6E6164613A204272616E63D1
:10014E006F0A0D0000436F722073656C6563696FF3
:10015E006E6164613A20526F73610A0D0000505750
:10016E004D206C696761646F210A0D30202D205679
:10017E0065726D656C686F0A0D31202D20566572A3
:10018E0064650A0D32202D20417A756C0A0D3320DC
:10019E002D204272616E636F0A0D34202D20526F36
:1001AE0073610A0D53656C6563696F6E6520756DBD
:1001BE006120636F723A200A0D000050574D206483
:1001CE0065736C696761646F210A0D00004361728B
:1001DE00616374657220696E76616C69646F210A61
:1001EE000D000050574D20523D5858582050574D35
:1001FE0020473D595959202050574D20423D5A5ABB
:06020E005A200A0D000059
:10021400CF92DF92EF92CF93DF9380917D01813073
:1002240009F0A6C180917B01813009F0A1C110922F
:100234007D018091770190917801009729F08130B8
:10024400910509F4CFC072C180916701823309F42A
:1002540053C028F4803351F0813359F1BCC0833347
:1002640009F46FC0843309F491C0B5C080913D0195
:1002740090913E01A0913F019C014A2F2F5F3F4F77
:100284004F4F209306013093070140930801FC016E
:100294008491A7FD80818093C60081E090E09093D3
:1002A40078018093770110927A011092790180E0AD
:1002B40042C18091400190914101A09142019C0171
:1002C4004A2F2F5F3F4F4F4F209306013093070172
:1002D40040930801FC018491A7FD80818093C600AE
:1002E40081E090E0909378018093770190937A0174
:1002F4008093790180E01FC1809143019091440172
:10030400A09145019C014A2F2F5F3F4F4F4F2093EF
:1003140006013093070140930801FC018491A7FD75
:1003240080818093C60081E090E09093780180936F
:10033400770182E090E090937A018093790180E0E4
:10034400FAC08091460190914701A09148019C0117
:100354004A2F2F5F3F4F4F4F2093060130930701E1
:1003640040930801FC018491A7FD80818093C6001D
:1003740081E090E0909378018093770183E090E0AE
:1003840090937A018093790180E0D5C080914901EE
:1003940090914A01A0914B019C014A2F2F5F3F4F3E
:1003A4004F4F209306013093070140930801FC014D
:1003B4008491A7FD80818093C60081E090E09093B2
:1003C40078018093770184E090E090937A018093A0
:1003D400790180E0B0C081E090E09093780180934F
:1003E4007701A9C0FC01E959FE4F80818D3019F0D5
:1003F4008A3009F095C00E94470580917901909157
:100404007A01FC01EE0FFF1F8E0F9F1FFC01E85ABB
:10041400FE4F63E771E080810E94730527E030E0BE
:100424004EEC50E060E08BE091E00E94D90583E758
:1004340091E06C0120E8E22E6E2DA6018BE091E0A4
:100444000E94F2058091790190917A01FC01EE0FEE
:10045400FF1F8E0F9F1FFC01E85AFE4F63E771E0F8
:1004640081810E947305CBE0D1E0FE010190002060
:10047400E9F7CF0128E030E045ED50E060E0019776
:100484000E94D9056E2DA601CE010E94F20580912D
:10049400790190917A01FC01EE0FFF1F8E0F9F1FCF
:1004A400FC01E85AFE4F63E771E082810E94730504
:1004B400FE0101900020E9F7CF0128E030E04DED86
:1004C40050E060E001970E94D9056E2DA601CE018F
:1004D4000E94F205FE0101900020E9F7CF0123E01C
:1004E40030E045EE50E060E001970E94D905CE016E
:1004F400A0E89C014A2F2F5F3F4F4F4F20930601E6
:100504003093070140930801FE018491A7FD808187
:100514008093C600109278011092770180E00BC09E
:10052400109278011092770180E005C01092780152
:100534001092770180E08130D9F410927801109202
:1005440077018091520190915301A09154019C0133
:100554004A2F2F5F3F4F4F4F2093060130930701DF
:1005640040930801FC018491A7FD80818093C6001B
:0C057400DF91CF91EF90DF90CF900895C1
:100580001F920F920FB60F9211242F933F934F9308
:100590008F939F93AF93EF93FF9389B18695869541
:1005A00091E08927817080930001813011F490934C
:1005B000050181112CC090910501913041F5909178
:1005C0007B01913021F510927B0110920501809101
:1005D0004F0190915001A09151019C014A2F2F5F32
:1005E0003F4F4F4F2093060130930701409308017E
:1005F000FC018491A7FD80818093C6001092780150
:100600001092770118BC17BC10927C012AC081118E
:1006100028C080910501813021F580917B018111F5
:1006200020C081E080937B011092050180914C01F4
:1006300090914D01A0914E019C014A2F2F5F3F4F99
:100640004F4F209306013093070140930801FC01AE
:100650008491A7FD80818093C6001092780110924A
:100660007701FF91EF91AF919F918F914F913F91C2
:0C0670002F910F900FBE0F901F90189557
:10067C0010C00E94800658F00E94790640F029F4C0
:10068C005F3F29F00C948E0651110C9488060C9443
:10069C009C060E949B0568F39923B1F3552391F3B3
:1006AC00951B550BBB27AA2762177307840738F0D5
:1006BC009F5F5F4F220F331F441FAA1FA9F335D032
:1006CC000E2E3AF0E0E832D091505040E695001CE6
:1006DC00CAF72BD0FE2F29D0660F771F881FBB1FA0
:1006EC00261737074807AB07B0E809F0BB0B802D7E
:1006FC00BF01FF2793585F4F3AF09E3F510578F0AA
:10070C000C948E060C9488065F3FE4F3983ED4F369
:10071C00869577956795B795F7959F5FC9F7880F7D
:10072C00911D9695879597F90895E1E0660F771FCF
:10073C00881FBB1F621773078407BA0720F0621B60
:0E074C00730B840BBA0BEE1F88F7E09508952F
:10075A000FC00E94790638F00E94800620F0952387
:10076A0011F00C948E060C949C0611240C948806A5
:10077A000E949B0570F3959FC1F3950F50E0551F9A
:10078A00629FF001729FBB27F00DB11D639FAA27DC
:10079A00F00DB11DAA1F649F6627B00DA11D661F2B
:1007AA00829F2227B00DA11D621F739FB00DA11D4C
:1007BA00621F839FA00D611D221F749F3327A00D06
:1007CA00611D231F849F600D211D822F762F6A2FA2
:1007DA0011249F5750409AF0F1F088234AF0EE0F07
:1007EA00FF1FBB1F661F771F881F91505040A9F734
:1007FA009E3F510580F00C948E060C9488065F3F4C
:10080A00E4F3983ED4F3869577956795B795F7956F
:10081A00E7959F5FC1F7FE2B880F911D96958795E7
:04082A0097F908959D
:10082E000E941B050E94510680E00E9421069093B3
:10083E00040180930301BC0180E090E00E947C04DF
:10084E0020E030E040EA50E40E94980620E030ECD0
:10085E004FE754E40E9494066B017C0120E030E0E7
:10086E004FE753E40E9498060E947206C62F6093CB
:10087E0001017093020120E030E048EC52E4C70120
:10088E00B6010E9498060E94720670930A01609348
:10089E0009016C2F6095E8E5F1E060831182128208
:1008AE00138264831582168217826087618762873E
:1008BE00638764871586668780917B01813011F48A
:1008CE000E9447050E940A0180E00CC090917C01B5
:1008DE00891720F49BB190689BB903C09BB19F7799
:0A08EE009BB98F5F843690F39FCF13
:1008F800E89409C097FB3EF49095809570956195B2
:100908007F4F8F4F9F4F9923A9F0F92F96E9BB2767
:100918009395F695879577956795B795F111F8CFE3
:10092800FAF4BB0F11F460FF1BC06F5F7F4F8F4F4E
:100938009F4F16C0882311F096E911C0772321F044
:100948009EE8872F762F05C0662371F096E8862FDC
:1009580070E060E02AF09A95660F771F881FDAF733
:0A096800880F9695879597F908957A
:100972001F920F920FB60F9211242F938F939F9372
:10098200AF93EF93FF93209106019091070180911D
:100992000801E22FF92F949187FD9081992381F02C
:1009A2009093C6008091060190910701A0910801E1
:1009B2000196A11D8093060190930701A09308015F
:1009C200FF91EF91AF919F918F912F910F900FBE59
:0609D2000F901F90189524
:1009D8000E94A30588F09F5798F0B92F9927B7511F
:1009E800B0F0E1F0660F771F881F991F1AF0BA95CB
:1009F800C9F714C0B13091F00E948706B1E008959C
:100A08000C948706672F782F8827B85F39F0B93F8D
:100A1800CCF3869577956795B395D9F73EF490957D
:0E0A28008095709561957F4F8F4F9F4F089579
:100A36008FE384B983EE8AB98AB18B7F8AB98BB189
:100A460084608BB9E8E6F0E0808184608083EDE61F
:100A5600F0E080818C618083EAE7F0E0808187683E
:100A660080831092C00088ED8093C10086E0809359
:100A7600C2001092C50083E38093C40018BC17BC63
:080A860010927C0178940895A0
:100A8E008091790190917A01FC01EE0FFF1F8E0F7C
:100A9E009F1FFC01E85AFE4F808188BD809179012D
:100AAE0090917A01FC01EE0FFF1F8E0F9F1FFC012C
:100ABE00E85AFE4F818187BD8091790190917A012C
:100ACE00FC01EE0FFF1F8E0F9F1FFC01E85AFE4F19
:080ADE00828180937C010895E0
:100AE600FB0199E2899F912D112492959F7020E335
:100AF600290F2083282F34E6939F201911249DEC7B
:100B0600299F212D1124269526952695205D218342
:100B1600899F912D1124969596959695990F292F33
:100B2600220F220F920F891B805D82831382089504
:100B360057FD9058440F551F59F05F3F71F0479588
:100B4600880F97FB991F61F09F3F79F0879508956D
:100B5600121613061406551FF2CF4695F1DF08C08C
:100B6600161617061806991FF1CF869571056105A9
:040B76000894089542
:100B7A001F920F920FB60F9211248F93EF93FF9348
:100B8A00E0917701F09178018091C600E959FE4F12
:100B9A00808381E080937D01FF91EF918F910F9087
:080BAA000FBE0F901F9018957B
:100BB200CF92DF92EF926A01E62EDC01280F391FF5
:100BC200A217B30751F0F6014491E7FC40814D931F
:100BD2004FEFC41AD40AE40AF3CFEF90DF90CF901C
:020BE200089574
:100BE400CF92DF92EF92CF93DF93EC016A01E62E6E
:100BF400BC0180E80E940B066E2DA6018C0F9D1F80
:100C04000E944306CE01DF91CF91EF90DF90CF9009
:020C1400089541
:100C1600CF92DF92EF926B01E82EA82FCB01FC0159
:100C26002491A7FD2081222319F00196A11DF7CF5B
:0C0C36008C199D09EF90DF90CF9008957D
:100C4200806480937C00EAE7F0E0808180648083A6
:100C520080917A0086FDFCCF809178009091790096
:020C62000895F3
:100C6400092E0394000C11F4882352F0BB0F40F4B6
:100C7400BF2B11F460FF04C06F5F7F4F8F4F9F4FF6
:020C84000895D1
:100C86009A01462FDC01F901549147FD50815D938D
:0C0C96002F5F3F4F4F4F5111F6CF0895D4
:100CA20085B5826085BDEEE6F0E08081816080835B
:080CB20084B5816A84BD089538
:100CBA00EC010E94A4060E94A306CE010E94A5068A
:060CCA00CE010E94A1060C
:100CD0001F920F920FB60F9211240F900FBE0F901C
:040CE0001F901895B4
:0E0CE4000E94EC046894B1110C9488060895E7
:0E0CF20000240A94161617061806090608951F
:0E0D000000240A941216130614060506089520
:0E0D0E00E894BB2766277727CB0197F9089555
:0C0D1C0097F99F6780E870E060E00895A0
:080D28000E943E030C94320608
:080D30000E94AD030C94320691
:060D38009FEF80EC08951E
:040D3E000C94000011
:040D42000E946500A6
:020D460008950E
:020D480008950C
:020D4A0008950A
:100D4C00E800000501001F01003801005301006C90
:0B0D5C000100C90100DB0100F10100F3
:0F0D6700FF000000FF000000FFFFFFFF00000083
:0C0D760030303030303030303030000091
:00000001FF
